:105000000040002061530000BD53000061520000C9
:105010000000000000000000000000000000000090
:10502000000000000000000000000000BD53000070
:105030000000000000000000BD530000BD53000050
:10504000BD530000BD530000BD530000BD53000020
:10505000BD530000BD530000BD530000BD53000010
:10506000BD530000BD530000BD530000BD53000000
:10507000BD530000BD530000BD530000BD530000F0
:10508000BD530000BD530000BD530000BD530000E0
:10509000BD530000BD530000BD530000BD530000D0
:1050A000BD530000BD530000BD530000BD530000C0
:1050B000BD530000BD530000BD530000BD530000B0
:1050C000BD530000BD530000BD530000BD530000A0
:1050D000BD530000BD530000BD530000BD53000090
:1050E000BD530000BD530000BD530000BD53000080
:1050F000BD530000BD530000BD530000BD53000070
:10510000BD530000BD530000BD530000BD5300005F
:10511000BD530000BD530000BD530000BD5300004F
:10512000BD530000BD530000BD530000BD5300003F
:10513000BD530000BD530000BD530000BD5300002F
:1051400040F2700040F27003C2F20000C2F20003AD
:1051500010B5834205D040F20003C0F2000303B152
:10516000984710BD40F2700040F27001C2F200009A
:10517000C2F20001091A8A10C90F8918491010B526
:1051800029B140F20003C0F2000303B1984710BDFB
:1051900010B540F27004C2F20004237873B9FFF72F
:1051A000CFFF40F20003C0F200032BB146F274308F
:1051B000C0F2000000E000BF0123237010BDC04614
:1051C00040F20003C0F2000310B54BB140F274018D
:1051D00046F27430C2F20001C0F2000000E000BFED
:1051E000FFF7C0FF10BDC046402292029A1A9246B5
:1051F0007047C046154B002B00D1114B9D46FFF761
:10520000F3FF00218B460F461148124A121A00F094
:1052100055F90C4B002B00D098470B4B002B00D0BE
:1052200098470020002104000D000B4800F0E0F832
:1052300000F01EF92000290000F010F800F0E6F858
:1052400000000800000000000000000000400020F6
:10525000700000202C01002039540000FEE70000FF
:105260007046EFF30881EFF30982024B984700473D
:10527000704700007952000010B50B00410700D5BF
:1052800013009A69118889B24BF6AB64A14206D02B
:1052900046F20030C0F2000000F0D4F9FEE740F220
:1052A0000001C2F2000100240C6002329A6110BDBC
:1052B00010B51000130008E000240C5744F200035E
:1052C000C4F207031C60130001315A1EC3B144F23B
:1052D0000003C4F207039B691B02F8D40023CB56DA
:1052E0000A2BE9D144F20003C4F207030D241C6029
:1052F00044F20003C4F207039B691B02F8D4DBE706
:1053000010BD44F20003C4F207039B695B04F8D4A8
:1053100044F20003C4F207031B680B7001207047BE
:1053200010B500F06DF8582303600120404210BD15
:1053300010B500F065F8582303600120404210BD0D
:1053400010B500F05DF858230360002010BD10B5C3
:1053500000F056F8582303600120404210BD0000C1
:105360001049114A114B9B1A03DD043BC858D05019
:10537000FBDC0F4840F25901016040F21601016068
:1053800040F28801016000F01BF80A4845F6A521AB
:10539000016009480160064840F200010160FFF722
:1053A00029FF000080630000000000207000002042
:1053B0000001004024000040EC010040FEE7C04630
:1053C0004CF20002C4F20002D36C08490B4040F2D8
:1053D00003110B43D36445F20002C0F200024EF603
:1053E0000053CEF200039A607047C046F0FEFFFF04
:1053F00010B5010000230022002000F02FFA10BD9C
:1054000040F20403C2F200031868704745F64113E6
:10541000C0F2000310B5040013B1002100F090FAAF
:1054200046F21033C0F200031868836A03B198474C
:10543000200000F057FFC04610B540F26C0340F268
:105440007004C2F20003C2F20004E41AA4105CB1BA
:1054500040F26C02C2F200029446013CA300634495
:105460001B689847002CF3D100F044FF10BDC046E4
:1054700070B540F2680640F26805C2F20006C2F25A
:105480000005761BB6102EB1002408CD01349847D4
:10549000A642FAD140F26C0640F26805C2F200065C
:1054A000C2F20005761BB61000F01EFF2EB10024DC
:1054B00008CD01349847A642FAD170BDF0B58307F4
:1054C0004BD0541E002A43D0CEB20300032501E086
:1054D000013C3DD301335A1E16702B42F8D1032CE8
:1054E0002FD9FF220A40150215432A0415430F2C19
:1054F00036D92700103F3F093E01B4461E001A006E
:1055000010366644156055609560D5601032B24221
:10551000F8D10F260C2201373F012640DB19370056
:10552000224216D03E1FB608B400A4461A001C1D25
:10553000644420C2A242FCD103240136B6009B1968
:105540003C402CB1C9B21C19197001339C42FBD1EB
:10555000F0BD3400002CF5D1FAE714000300BEE7DB
:105560002700DFE7836970B506000D00002B3AD0F5
:10557000846846F25433C0F200039C4242D046F2A3
:105580003433C0F200039C4249D046F21433C0F2D7
:1055900000039C4254D0A3891B0737D52369002BF5
:1055A00034D0A3682978013B89B10135A360002B71
:1055B00004DAA2699A4234DC0A2932D023685A1CE0
:1055C00022601970A3682978013B0029EDD1A360FE
:1055D000002B2FDA22000A31300000F03DF8431C86
:1055E0001AD00A2070BD00F0EBFBB369B468002B41
:1055F000BFD1300000F0E4FB46F25433C0F20003A8
:105600009C42BCD17468A3891B07C7D42100300019
:1056100000F09AF80028C4D001204042E2E7B468C4
:10562000B9E72200300000F017F8431CB9D101207F
:105630004042D7E723685A1C22600A221A70D0E73A
:10564000F468A8E740F2040310B5C2F200030100B9
:105650001868FFF787FF10BDF8B505000E001400AD
:1056600010B18369002B31D046F25433C0F20003ED
:105670009C4233D046F23433C0F200039C4249D0FE
:1056800046F21433C0F200039C424ED0A369A360DB
:10569000A3891B0728D5236933B3FF22F7B26169B9
:1056A00016402268D31A99422CDD0133A1680139D2
:1056B000A160511C2160177062699A422CD0A389A5
:1056C000DB0701D50A2E27D03000F8BD00F078FBAB
:1056D00046F25433C0F200039C42CBD16C68A369FC
:1056E000A360A3891B07D6D42100280000F02CF862
:1056F000C0B9FF222369F7B2616916402268D31A44
:105700009942D2DC2100280000F00EFA50B922683C
:105710000123CBE7AC68B9E72100280000F004FAC8
:105720000028D1D001267642CEE7EC68AEE7C0462D
:1057300040F2040310B5C2F200031B680A00010026
:105740001800FFF789FF10BD40F20403C2F2000306
:1057500070B51D6806000C000DB1AB691BB346F2B5
:105760005433C0F200039C4226D046F23433C0F2D8
:1057700000039C4251D046F21433C0F200039C4215
:1057800061D00C23E25E93B219071BD5216921B3C6
:10579000DA0731D50023A360636900205B42A3616F
:1057A000002931D070BD280000F00AFB46F25433C6
:1057B000C0F200039C42D8D16C680C23E25E93B225
:1057C0001907E3D4D90640D55B0728D421690823FB
:1057D0001343A3819BB20029DAD140F2802240F228
:1057E00000201A408242D3D02100300000F07EFB1E
:1057F000A3892169DA07CDD400229B0700D462690E
:10580000A26000200029CDD10C22A35E1A06C9D5C2
:1058100040221343A3810138C4E7AC68B1E7616B50
:1058200051B123004433994204D0300000F0A4FB6E
:105830000C23E25E0023636324239A43002321693F
:1058400063602160C3E7EC689BE709233360402372
:1058500001201A43A2814042A4E7C046F0B5464663
:105860004F46D646C0B51F0040F21813C2F20003DF
:105870001C6882B005000E009046002C30D0636892
:105880001F2B5ADC05B340F288094A46A05800286D
:105890003DD07832825894469A00914681444246DF
:1058A00049460A600121624699400A43944640F203
:1058B00000188A464246614640F2800C815062469A
:1058C00049468F50022D1CD000205A1C02339B00E9
:1058D00062601E5102B01CBC90469946A246F0BDC3
:1058E00040F28C04C2F200041C6040F20003C0F2DB
:1058F0000003002BC3D01B6801938823019AE25058
:10590000BDE75546843281580D438550DCE740F2AF
:105910000003C0F2000383B140F2081000E000BFB2
:1059200058B1002340F200128350043283504B469A
:1059300040F2000CE0506368AEE701204042C9E746
:10594000F0B5DE4640F2181B4E4645465746C2F2B9
:10595000000B5B468846E0B51E6883B00190002EC0
:1059600043D088237568F7586C1E3ED40135AD00CE
:10597000751940F2001A09E02FB13B00A2008033F4
:105980009B58434505D0043D013C2ED34346002B94
:10599000F2D173682A68013BA34221D000232B6017
:1059A000002AF0D073689946C7B101235146A3403D
:1059B0007958194212D040F204103858A100795891
:1059C000009018420ED1019890475B4672681B68A0
:1059D0004A4501D1B342D6D01E00C0E79047F4E754
:1059E0007460DDE708009047EFE703B03CBC9046E9
:1059F0009946A246AB46F0BDF0B5C64600B58B89C8
:105A000080460C001A0742D44A68002A60DDE56A25
:105A1000CDB342464146166800220A60216ADA0484
:105A20005AD4012300224046A847431C5FD0A389D3
:105A3000E56A216A5B0705D56368C01A636B0BB121
:105A4000236CC01A002302004046A847431C45D1DE
:105A500043461B680C21625E002B55D01D2B01D0E4
:105A6000162B5CD100236360236923604346616B7E
:105A70001E6041B123004433994202D0404600F0F9
:105A80007BFA00236363002004BC9046F0BD0E69DE
:105A9000002EF8D00A680E60951B00229B0700D1EB
:105AA0004A69A260002D04DCEDE736182D1A002D9E
:105AB000E9DD2B003200216A4046A76AB84700287A
:105AC000F3DC40220120A38940421343A381DBE79A
:105AD0000A6C002A9BDCD6E7606DABE700236360AD
:105AE00023692360A389DB04C0D56065BEE7434614
:105AF0001B68002B9BD01D2B0DD0162B0BD04022EA
:105B0000A3891343A381BFE7636023692360D304A0
:105B1000ACD56065AAE7434600201E60B4E7402389
:105B20001A43A281B0E7C0460B6970B505000C00AE
:105B3000E3B108B18369EBB146F25433C0F200031C
:105B40009C4215D046F23433C0F200039C4214D07C
:105B500046F21433C0F200039C4210D00C22A35E24
:105B600023B121002800FFF747FF00E0002070BDAF
:105B70006C68F3E700F024F9DEE7AC68EEE7EC6868
:105B8000ECE7C04600B5010083B040B140F2040329
:105B9000C2F200031868FFF7C7FF03B000BD46F26A
:105BA000103345F62931C0F200031B68C0F2000132
:105BB0001800019300F04EF9EFE7C046002070474F
:105BC00045F6293110B5C0F2000100F043F910BDCF
:105BD0000020704770B568244A1E54430E0021000F
:105BE000743100F01FFA050048B100232200036061
:105BF00046600C30A86068320021FFF75FFC280087
:105C000070BDC04646F21033C0F2000370B51D6887
:105C10000600AB6933B348356B68AC68013B03D50C
:105C20001CE06834013B19D30C21625E002AF8D1D4
:105C300000252000134B656625606560A560E36064
:105C400025616561A561082200215C30FFF736FC03
:105C50006563A563A564E564200070BD2C682CB164
:105C60002500D9E7280000F00FF8D4E70421300020
:105C7000FFF7B0FF040028600028F1D10C23336047
:105C8000EAE7C0460100FFFF45F6C133F0B5D6464E
:105C90004F464646C0F20003C0B5836200238364CA
:105CA000C364036546F21033C0F200031B6882B080
:105CB00005000193984200D170E02800FFF7A2FF91
:105CC00068602800FFF79EFFA8602800FFF79AFF92
:105CD0006E680024E8600423300046F21D1A7466E2
:105CE000C0F2000A34607460B460F36034617461BF
:105CF000B461082200215C3046F24919FFF7DEFB4F
:105D00005346C0F2000946F2891873624B46C0F24E
:105D1000000846F2B517B3624346C0F20007F362CB
:105D200037633662AE6809233000C0F2010374663F
:105D300034607460B460F36034617461B4610822EB
:105D400000215C30FFF7BAFB534673624B46B362E7
:105D500043463763F3623662EE6812233000C0F2C6
:105D60000203F360746634607460B460346174611B
:105D7000B461082200215C30FFF7A0FB5346736238
:105D80004B46B3624346F362012336623763AB612D
:105D900002B01CBC90469946A246F0BD0123836127
:105DA0008BE7C04646F2103345F6293110B5C0F2F4
:105DB0000003C0F20001186800F04CF810BDC046A6
:105DC000836910B50BB9FFF75FFF10BD7047C04680
:105DD0007047C0467047C0467047C04640F2040353
:105DE00045F6BD3110B5C2F20003C0F200011868DB
:105DF00000F010F810BDC04640F2040345F6D13162
:105E000010B5C2F20003C0F20001186800F002F8F9
:105E100010BDC046F0B5C646483000B588460700FC
:105E2000002698B17B68BC685D1E0CD4A389012B49
:105E300006D90E22A35E013302D02000C0470643DC
:105E40006834013DF2D23F68002FEBD1300004BC32
:105E50009046F0BDF8B54746CE4680B507004837B6
:105E6000804689460026A7B17B68BC685D1E0DD4BC
:105E7000A389012B07D90E22A35E013303D0210091
:105E80004046C84706436834013DF1D23F68002FC1
:105E9000EAD130000CBC90469946F8BD70B50C00B4
:105EA0001D000E23C95E96B01600002914DB6A4659
:105EB00000F0B0F900280FDB4FF20002019B134005
:105EC000094A944663445A4253412B6040F20043CE
:105ED0003360002016B070BD00232B60A3891B0621
:105EE000F4D540233360F4E700E0FFFF70B58B8901
:105EF00082B006000C009B0707D5230047332360C0
:105F000023610123636102B070BD01AB6A46FFF7F4
:105F1000C5FF00990500300000F084F890B145F607
:105F2000C1338022C0F20003B362A389206013430F
:105F3000009A1BB26261019AA381206162B92B436E
:105F4000A381E0E70C22A35E9A05DCD403229343ED
:105F500002221343A381D0E70E23E15E300000F05C
:105F60006DF910B90C22A35EE9E70322A3899343DC
:105F7000012213431BB2E2E770B50500B9B10C1F53
:105F80002368002B29DB280000F082F940F21C1363
:105F9000C2F200031A682AB1A2420CD92168601823
:105FA000824224D0626028001C6000F073F970BD4A
:105FB000A34203D81A005368002BF9D11168501876
:105FC000A0421BD027D821686018834207D06360A5
:105FD0005460280000F05EF9E9E7E418D3E7186898
:105FE0005B6884466144216063605460F1E7106837
:105FF00052688446614421606260D4E720680918D1
:10600000501811608342E4D118685B68844661448B
:1060100011605360DDE70C2328002B6000F03AF993
:10602000C5E7C046F8B50323CD1C9D4308350600DF
:106030000C2D2CD20C25A9422BD840F21C17300075
:10604000C2F2000700F024F93A6852B113685B1BF2
:1060500004D442E023685B1B1FD522005468002C47
:10606000F8D17B68002B3ED02900300000F042F8C8
:10607000431C2BD00323C41C9C43A04205D0211AEF
:10608000300000F037F8431C20D0256010E0002DD0
:10609000D1DA0C2300203360F8BD0B2B05D86368E0
:1060A000A2421ED0536003E014002360E418256070
:1060B000300000F0EFF8200007220B30231D904342
:1060C000C21A002AE8D01B1AA350E5E70C233000BF
:1060D000336000F0DFF80020DEE70B2BE4D814007B
:1060E00053683B60E4E70021300000F003F878607B
:1060F000BAE7C04670B540F2281400230500C2F28A
:1061000000040800236000F0DDF8431C00D070BDDF
:106110002368002BFBD02B60F9E7C04670B50C005C
:106120000E25495F00F0B8F8002803DB636D1B18EB
:10613000636570BDA389024A1340A381F9E7C04695
:10614000FFEFFFFF00207047F8B516001F000C227C
:106150008B5E0C0005000E22895EDA0508D4094A20
:1061600028001340A38132003B0000F029F8F8BD5D
:106170000022022300F076F80C22A35E0E22A15E1C
:10618000EDE7C046FFEFFFFF70B50C000E25495F3D
:1061900000F068F8431C06D041F20002A389606554
:1061A0001343A38170BDA389014A1340A381F9E77A
:1061B000FFEFFFFF10B50E23C95E00F017F810BD0A
:1061C00070B540F228140500080011000022C2F248
:1061D000000422601A00FFF76BF8431C00D070BD6A
:1061E0002368002BFBD02B60F9E7C04670B540F266
:1061F000281400230500C2F2000408002360FFF702
:106200008FF8431C00D070BD2368002BFBD02B609F
:10621000F9E7C04670B540F2281400230500C2F229
:106220000004080011002360FFF782F8431C00D02F
:1062300070BD2368002BFBD02B60F9E770B540F2EE
:10624000281400230500C2F2000408002360FFF7B1
:1062500077F8431C00D070BD2368002BFBD02B6067
:10626000F9E7C04670B540F2281405000800110097
:106270000022C2F2000422601A00FFF768F8431CF3
:1062800000D070BD2368002BFBD02B60F9E7C0461F
:106290007047C0467047C04670B540F228140500EC
:1062A000080011000022C2F2000422601A00FFF769
:1062B00028F8431C00D070BD2368002BFBD02B6056
:1062C000F9E7C04640F22413C2F200031A681AB17B
:1062D000101818601000704740F23012C2F200022D
:1062E000F6E7C046FEE7C046F8B5C046F8BC08BCB5
:1062F0009E467047F8B5C046F8BC08BC9E4670473D
:106300002020486172644661756C74210A000000A7
:106310000800002000000000000000000000000055
:10632000000000000000000000000000000000006D
:10633000000000000000000000000000000000005D
:10634000000000000000000000000000000000004D
:10635000000000000000000000000000000000003D
:10636000000000000000000000000000000000002D
:08637000000000000000000025
:0863780070EEFF7F0100000040
:10638000010000000800002000000000546300002D
:1063900034630000146300000000000000000000EF
:1063A00000000000000000000000000000000000ED
:1063B00000000000000000000000000000000000DD
:1063C00000000000000000000000000000000000CD
:1063D00000000000000000000000000000000000BD
:1063E0000000000000000000C151000091510000B9
:040000030000536145
:00000001FF
